{
  "_format": "hh-sol-artifact-1",
  "contractName": "Booster",
  "sourceName": "contracts/Booster.sol",
  "abi": [
    {
      "inputs": [],
      "stateMutability": "nonpayable",
      "type": "constructor"
    },
    {
      "anonymous": false,
      "inputs": [
        {
          "indexed": false,
          "internalType": "address",
          "name": "user",
          "type": "address"
        },
        {
          "indexed": false,
          "internalType": "uint256",
          "name": "amount",
          "type": "uint256"
        },
        {
          "indexed": false,
          "internalType": "uint256",
          "name": "timestamp",
          "type": "uint256"
        }
      ],
      "name": "PaymentAdded",
      "type": "event"
    },
    {
      "inputs": [
        {
          "internalType": "address",
          "name": "",
          "type": "address"
        }
      ],
      "name": "accountBalances",
      "outputs": [
        {
          "internalType": "uint256",
          "name": "",
          "type": "uint256"
        }
      ],
      "stateMutability": "view",
      "type": "function"
    },
    {
      "inputs": [],
      "name": "balance",
      "outputs": [
        {
          "internalType": "uint256",
          "name": "",
          "type": "uint256"
        }
      ],
      "stateMutability": "view",
      "type": "function"
    },
    {
      "inputs": [],
      "name": "transfer",
      "outputs": [],
      "stateMutability": "payable",
      "type": "function"
    },
    {
      "inputs": [],
      "name": "withdraw",
      "outputs": [],
      "stateMutability": "payable",
      "type": "function"
    }
  ],
  "bytecode": "0x608060405234801561001057600080fd5b50336000806101000a81548173ffffffffffffffffffffffffffffffffffffffff021916908373ffffffffffffffffffffffffffffffffffffffff1602179055506103cc806100606000396000f3fe60806040526004361061003f5760003560e01c80633ccfd60b146100445780636ff96d171461004e5780638a4068dd1461008b578063b69ef8a814610095575b600080fd5b61004c6100c0565b005b34801561005a57600080fd5b5061007560048036038101906100709190610239565b610129565b6040516100829190610317565b60405180910390f35b610093610141565b005b3480156100a157600080fd5b506100aa610205565b6040516100b79190610317565b60405180910390f35b60008054906101000a900473ffffffffffffffffffffffffffffffffffffffff1673ffffffffffffffffffffffffffffffffffffffff166108fc479081150290604051600060405180830381858888f19350505050158015610126573d6000803e3d6000fd5b50565b60016020528060005260406000206000915090505481565b60003411610184576040517f08c379a000000000000000000000000000000000000000000000000000000000815260040161017b906102f7565b60405180910390fd5b34600160003373ffffffffffffffffffffffffffffffffffffffff1673ffffffffffffffffffffffffffffffffffffffff168152602001908152602001600020819055507f29c675de18de91d200186f5127f4eb69db3de4d84327158fbaff3f4a28ed7b093334426040516101fb939291906102c0565b60405180910390a1565b60003073ffffffffffffffffffffffffffffffffffffffff1631905090565b6000813590506102338161037f565b92915050565b60006020828403121561024b57600080fd5b600061025984828501610224565b91505092915050565b61026b81610343565b82525050565b600061027e600e83610332565b91507f456d707479207472616e736163740000000000000000000000000000000000006000830152602082019050919050565b6102ba81610375565b82525050565b60006060820190506102d56000830186610262565b6102e260208301856102b1565b6102ef60408301846102b1565b949350505050565b6000602082019050818103600083015261031081610271565b9050919050565b600060208201905061032c60008301846102b1565b92915050565b600082825260208201905092915050565b600061034e82610355565b9050919050565b600073ffffffffffffffffffffffffffffffffffffffff82169050919050565b6000819050919050565b61038881610343565b811461039357600080fd5b5056fea264697066735822122055c1c704fa0ff5dfbd7084d92ae00a3e5b501a33a0bea4fe5a5e4803a3a52bc264736f6c63430008000033",
  "linkReferences": {},
  "deployedLinkReferences": {}
}