{
  "_format": "hh-sol-artifact-1",
  "contractName": "Boostermatic",
  "sourceName": "contracts/Boostermatic.sol",
  "abi": [
    {
      "inputs": [],
      "stateMutability": "nonpayable",
      "type": "constructor"
    },
    {
      "anonymous": false,
      "inputs": [
        {
          "indexed": false,
          "internalType": "address",
          "name": "user",
          "type": "address"
        },
        {
          "indexed": false,
          "internalType": "uint256",
          "name": "amount",
          "type": "uint256"
        },
        {
          "indexed": false,
          "internalType": "uint256",
          "name": "timestamp",
          "type": "uint256"
        }
      ],
      "name": "PaymentAdded",
      "type": "event"
    },
    {
      "inputs": [
        {
          "internalType": "address",
          "name": "",
          "type": "address"
        }
      ],
      "name": "accountBalances",
      "outputs": [
        {
          "internalType": "uint256",
          "name": "",
          "type": "uint256"
        }
      ],
      "stateMutability": "view",
      "type": "function"
    },
    {
      "inputs": [],
      "name": "balance",
      "outputs": [
        {
          "internalType": "uint256",
          "name": "",
          "type": "uint256"
        }
      ],
      "stateMutability": "view",
      "type": "function"
    },
    {
      "inputs": [],
      "name": "checkwithdrawbalance",
      "outputs": [
        {
          "internalType": "uint256",
          "name": "",
          "type": "uint256"
        }
      ],
      "stateMutability": "view",
      "type": "function"
    },
    {
      "inputs": [
        {
          "internalType": "address",
          "name": "_confirms",
          "type": "address"
        }
      ],
      "name": "confirmation",
      "outputs": [],
      "stateMutability": "nonpayable",
      "type": "function"
    },
    {
      "inputs": [
        {
          "internalType": "address",
          "name": "",
          "type": "address"
        }
      ],
      "name": "confirmationAddress",
      "outputs": [
        {
          "internalType": "address",
          "name": "",
          "type": "address"
        }
      ],
      "stateMutability": "view",
      "type": "function"
    },
    {
      "inputs": [],
      "name": "transfer",
      "outputs": [],
      "stateMutability": "payable",
      "type": "function"
    },
    {
      "inputs": [],
      "name": "withdraw",
      "outputs": [],
      "stateMutability": "payable",
      "type": "function"
    }
  ],
  "bytecode": "0x6080604052600060035534801561001557600080fd5b50336000806101000a81548173ffffffffffffffffffffffffffffffffffffffff021916908373ffffffffffffffffffffffffffffffffffffffff160217905550610764806100656000396000f3fe6080604052600436106100705760003560e01c8063747a7b951161004e578063747a7b95146100e75780638a4068dd14610110578063b69ef8a81461011a578063de1edb001461014557610070565b80630401f224146100755780633ccfd60b146100a05780636ff96d17146100aa575b600080fd5b34801561008157600080fd5b5061008a610182565b604051610097919061062a565b60405180910390f35b6100a861018c565b005b3480156100b657600080fd5b506100d160048036038101906100cc9190610471565b6102d3565b6040516100de919061062a565b60405180910390f35b3480156100f357600080fd5b5061010e60048036038101906101099190610471565b6102eb565b005b610118610346565b005b34801561012657600080fd5b5061012f61040a565b60405161013c919061062a565b60405180910390f35b34801561015157600080fd5b5061016c60048036038101906101679190610471565b610429565b6040516101799190610578565b60405180910390f35b6000600354905090565b60008054906101000a900473ffffffffffffffffffffffffffffffffffffffff1673ffffffffffffffffffffffffffffffffffffffff163373ffffffffffffffffffffffffffffffffffffffff161461021a576040517f08c379a0000000000000000000000000000000000000000000000000000000008152600401610211906105ca565b60405180910390fd5b60006003541415610260576040517f08c379a0000000000000000000000000000000000000000000000000000000008152600401610257906105ea565b60405180910390fd5b60008054906101000a900473ffffffffffffffffffffffffffffffffffffffff1673ffffffffffffffffffffffffffffffffffffffff166108fc6003549081150290604051600060405180830381858888f193505050501580156102c8573d6000803e3d6000fd5b506000600381905550565b60016020528060005260406000206000915090505481565b600160008273ffffffffffffffffffffffffffffffffffffffff1673ffffffffffffffffffffffffffffffffffffffff168152602001908152602001600020546003600082825461033c9190610656565b9250508190555050565b60003411610389576040517f08c379a00000000000000000000000000000000000000000000000000000000081526004016103809061060a565b60405180910390fd5b34600160003373ffffffffffffffffffffffffffffffffffffffff1673ffffffffffffffffffffffffffffffffffffffff168152602001908152602001600020819055507f29c675de18de91d200186f5127f4eb69db3de4d84327158fbaff3f4a28ed7b0933344260405161040093929190610593565b60405180910390a1565b60003073ffffffffffffffffffffffffffffffffffffffff1631905090565b60026020528060005260406000206000915054906101000a900473ffffffffffffffffffffffffffffffffffffffff1681565b60008135905061046b81610717565b92915050565b60006020828403121561048357600080fd5b60006104918482850161045c565b91505092915050565b6104a3816106ac565b82525050565b60006104b6601883610645565b91507f6f6e6c79206f776e65722063616e2063616c6c207468697300000000000000006000830152602082019050919050565b60006104f6601583610645565b91507f7a65726f2062736c6e20746f20776974686472617700000000000000000000006000830152602082019050919050565b6000610536600e83610645565b91507f456d707479207472616e736163740000000000000000000000000000000000006000830152602082019050919050565b610572816106de565b82525050565b600060208201905061058d600083018461049a565b92915050565b60006060820190506105a8600083018661049a565b6105b56020830185610569565b6105c26040830184610569565b949350505050565b600060208201905081810360008301526105e3816104a9565b9050919050565b60006020820190508181036000830152610603816104e9565b9050919050565b6000602082019050818103600083015261062381610529565b9050919050565b600060208201905061063f6000830184610569565b92915050565b600082825260208201905092915050565b6000610661826106de565b915061066c836106de565b9250827fffffffffffffffffffffffffffffffffffffffffffffffffffffffffffffffff038211156106a1576106a06106e8565b5b828201905092915050565b60006106b7826106be565b9050919050565b600073ffffffffffffffffffffffffffffffffffffffff82169050919050565b6000819050919050565b7f4e487b7100000000000000000000000000000000000000000000000000000000600052601160045260246000fd5b610720816106ac565b811461072b57600080fd5b5056fea264697066735822122075cb1173e7e29a645c066ec895c8a9447357db6f124dcefb8fe389082e013be464736f6c63430008000033",
  "linkReferences": {},
  "deployedLinkReferences": {}
}